{
	"Variable_Types.sol": {
		"functions": {
			"abi": [
				{
					"inputs": [],
					"name": "add",
					"outputs": [
						{
							"internalType": "uint256",
							"name": "",
							"type": "uint256"
						}
					],
					"stateMutability": "pure",
					"type": "function"
				},
				{
					"inputs": [],
					"name": "global",
					"outputs": [
						{
							"internalType": "uint256",
							"name": "",
							"type": "uint256"
						}
					],
					"stateMutability": "view",
					"type": "function"
				},
				{
					"inputs": [],
					"name": "val",
					"outputs": [
						{
							"internalType": "uint256",
							"name": "",
							"type": "uint256"
						}
					],
					"stateMutability": "view",
					"type": "function"
				}
			],
			"devdoc": {
				"kind": "dev",
				"methods": {},
				"version": 1
			},
			"evm": {
				"assembly": "    /* \"Variable_Types.sol\":62:329  contract functions{... */\n  mstore(0x40, 0x80)\n    /* \"Variable_Types.sol\":107:108  4 */\n  0x04\n    /* \"Variable_Types.sol\":89:108  uint public val = 4 */\n  0x00\n  sstore\n    /* \"Variable_Types.sol\":62:329  contract functions{... */\n  callvalue\n  dup1\n  iszero\n  tag_1\n  jumpi\n  0x00\n  dup1\n  revert\ntag_1:\n  pop\n  dataSize(sub_0)\n  dup1\n  dataOffset(sub_0)\n  0x00\n  codecopy\n  0x00\n  return\nstop\n\nsub_0: assembly {\n        /* \"Variable_Types.sol\":62:329  contract functions{... */\n      mstore(0x40, 0x80)\n      callvalue\n      dup1\n      iszero\n      tag_1\n      jumpi\n      0x00\n      dup1\n      revert\n    tag_1:\n      pop\n      jumpi(tag_2, lt(calldatasize, 0x04))\n      shr(0xe0, calldataload(0x00))\n      dup1\n      0x3c6bb436\n      eq\n      tag_3\n      jumpi\n      dup1\n      0x4f2be91f\n      eq\n      tag_4\n      jumpi\n      dup1\n      0xa05f9906\n      eq\n      tag_5\n      jumpi\n    tag_2:\n      0x00\n      dup1\n      revert\n        /* \"Variable_Types.sol\":89:108  uint public val = 4 */\n    tag_3:\n      tag_6\n      tag_7\n      jump\t// in\n    tag_6:\n      mload(0x40)\n      tag_8\n      swap2\n      swap1\n      tag_9\n      jump\t// in\n    tag_8:\n      mload(0x40)\n      dup1\n      swap2\n      sub\n      swap1\n      return\n        /* \"Variable_Types.sol\":135:230  function add() public pure returns (uint){... */\n    tag_4:\n      tag_10\n      tag_11\n      jump\t// in\n    tag_10:\n      mload(0x40)\n      tag_12\n      swap2\n      swap1\n      tag_9\n      jump\t// in\n    tag_12:\n      mload(0x40)\n      dup1\n      swap2\n      sub\n      swap1\n      return\n        /* \"Variable_Types.sol\":238:326  function global() public view  returns (uint){... */\n    tag_5:\n      tag_13\n      tag_14\n      jump\t// in\n    tag_13:\n      mload(0x40)\n      tag_15\n      swap2\n      swap1\n      tag_9\n      jump\t// in\n    tag_15:\n      mload(0x40)\n      dup1\n      swap2\n      sub\n      swap1\n      return\n        /* \"Variable_Types.sol\":89:108  uint public val = 4 */\n    tag_7:\n      sload(0x00)\n      dup2\n      jump\t// out\n        /* \"Variable_Types.sol\":135:230  function add() public pure returns (uint){... */\n    tag_11:\n        /* \"Variable_Types.sol\":171:175  uint */\n      0x00\n        /* \"Variable_Types.sol\":187:196  uint val2 */\n      dup1\n        /* \"Variable_Types.sol\":199:200  3 */\n      0x03\n        /* \"Variable_Types.sol\":187:200  uint val2 = 3 */\n      swap1\n      pop\n        /* \"Variable_Types.sol\":218:222  val2 */\n      dup1\n        /* \"Variable_Types.sol\":211:222  return val2 */\n      swap2\n      pop\n      pop\n        /* \"Variable_Types.sol\":135:230  function add() public pure returns (uint){... */\n      swap1\n      jump\t// out\n        /* \"Variable_Types.sol\":238:326  function global() public view  returns (uint){... */\n    tag_14:\n        /* \"Variable_Types.sol\":278:282  uint */\n      0x00\n        /* \"Variable_Types.sol\":301:316  block.timestamp */\n      timestamp\n        /* \"Variable_Types.sol\":294:316  return block.timestamp */\n      swap1\n      pop\n        /* \"Variable_Types.sol\":238:326  function global() public view  returns (uint){... */\n      swap1\n      jump\t// out\n        /* \"#utility.yul\":7:84   */\n    tag_18:\n        /* \"#utility.yul\":44:51   */\n      0x00\n        /* \"#utility.yul\":73:78   */\n      dup2\n        /* \"#utility.yul\":62:78   */\n      swap1\n      pop\n        /* \"#utility.yul\":7:84   */\n      swap2\n      swap1\n      pop\n      jump\t// out\n        /* \"#utility.yul\":90:208   */\n    tag_19:\n        /* \"#utility.yul\":177:201   */\n      tag_23\n        /* \"#utility.yul\":195:200   */\n      dup2\n        /* \"#utility.yul\":177:201   */\n      tag_18\n      jump\t// in\n    tag_23:\n        /* \"#utility.yul\":172:175   */\n      dup3\n        /* \"#utility.yul\":165:202   */\n      mstore\n        /* \"#utility.yul\":90:208   */\n      pop\n      pop\n      jump\t// out\n        /* \"#utility.yul\":214:436   */\n    tag_9:\n        /* \"#utility.yul\":307:311   */\n      0x00\n        /* \"#utility.yul\":345:347   */\n      0x20\n        /* \"#utility.yul\":334:343   */\n      dup3\n        /* \"#utility.yul\":330:348   */\n      add\n        /* \"#utility.yul\":322:348   */\n      swap1\n      pop\n        /* \"#utility.yul\":358:429   */\n      tag_25\n        /* \"#utility.yul\":426:427   */\n      0x00\n        /* \"#utility.yul\":415:424   */\n      dup4\n        /* \"#utility.yul\":411:428   */\n      add\n        /* \"#utility.yul\":402:408   */\n      dup5\n        /* \"#utility.yul\":358:429   */\n      tag_19\n      jump\t// in\n    tag_25:\n        /* \"#utility.yul\":214:436   */\n      swap3\n      swap2\n      pop\n      pop\n      jump\t// out\n\n    auxdata: 0xa2646970667358221220030b3641522b09103e7abb8d8e70a86d45fb9751ee63bc01cc6894d62efa923864736f6c634300081a0033\n}\n",
				"bytecode": {
					"linkReferences": {},
					"object": "608060405260045f553480156012575f80fd5b50610108806100205f395ff3fe6080604052348015600e575f80fd5b5060043610603a575f3560e01c80633c6bb43614603e5780634f2be91f146058578063a05f9906146072575b5f80fd5b6044608c565b604051604f919060bb565b60405180910390f35b605e6091565b6040516069919060bb565b60405180910390f35b6078609e565b6040516083919060bb565b60405180910390f35b5f5481565b5f80600390508091505090565b5f42905090565b5f819050919050565b60b58160a5565b82525050565b5f60208201905060cc5f83018460ae565b9291505056fea2646970667358221220030b3641522b09103e7abb8d8e70a86d45fb9751ee63bc01cc6894d62efa923864736f6c634300081a0033",
					"opcodes": "PUSH1 0x80 PUSH1 0x40 MSTORE PUSH1 0x4 PUSH0 SSTORE CALLVALUE DUP1 ISZERO PUSH1 0x12 JUMPI PUSH0 DUP1 REVERT JUMPDEST POP PUSH2 0x108 DUP1 PUSH2 0x20 PUSH0 CODECOPY PUSH0 RETURN INVALID PUSH1 0x80 PUSH1 0x40 MSTORE CALLVALUE DUP1 ISZERO PUSH1 0xE JUMPI PUSH0 DUP1 REVERT JUMPDEST POP PUSH1 0x4 CALLDATASIZE LT PUSH1 0x3A JUMPI PUSH0 CALLDATALOAD PUSH1 0xE0 SHR DUP1 PUSH4 0x3C6BB436 EQ PUSH1 0x3E JUMPI DUP1 PUSH4 0x4F2BE91F EQ PUSH1 0x58 JUMPI DUP1 PUSH4 0xA05F9906 EQ PUSH1 0x72 JUMPI JUMPDEST PUSH0 DUP1 REVERT JUMPDEST PUSH1 0x44 PUSH1 0x8C JUMP JUMPDEST PUSH1 0x40 MLOAD PUSH1 0x4F SWAP2 SWAP1 PUSH1 0xBB JUMP JUMPDEST PUSH1 0x40 MLOAD DUP1 SWAP2 SUB SWAP1 RETURN JUMPDEST PUSH1 0x5E PUSH1 0x91 JUMP JUMPDEST PUSH1 0x40 MLOAD PUSH1 0x69 SWAP2 SWAP1 PUSH1 0xBB JUMP JUMPDEST PUSH1 0x40 MLOAD DUP1 SWAP2 SUB SWAP1 RETURN JUMPDEST PUSH1 0x78 PUSH1 0x9E JUMP JUMPDEST PUSH1 0x40 MLOAD PUSH1 0x83 SWAP2 SWAP1 PUSH1 0xBB JUMP JUMPDEST PUSH1 0x40 MLOAD DUP1 SWAP2 SUB SWAP1 RETURN JUMPDEST PUSH0 SLOAD DUP2 JUMP JUMPDEST PUSH0 DUP1 PUSH1 0x3 SWAP1 POP DUP1 SWAP2 POP POP SWAP1 JUMP JUMPDEST PUSH0 TIMESTAMP SWAP1 POP SWAP1 JUMP JUMPDEST PUSH0 DUP2 SWAP1 POP SWAP2 SWAP1 POP JUMP JUMPDEST PUSH1 0xB5 DUP2 PUSH1 0xA5 JUMP JUMPDEST DUP3 MSTORE POP POP JUMP JUMPDEST PUSH0 PUSH1 0x20 DUP3 ADD SWAP1 POP PUSH1 0xCC PUSH0 DUP4 ADD DUP5 PUSH1 0xAE JUMP JUMPDEST SWAP3 SWAP2 POP POP JUMP INVALID LOG2 PUSH5 0x6970667358 0x22 SLT KECCAK256 SUB SIGNEXTEND CALLDATASIZE COINBASE MSTORE 0x2B MULMOD LT RETURNDATACOPY PUSH27 0xBB8D8E70A86D45FB9751EE63BC01CC6894D62EFA923864736F6C63 NUMBER STOP ADDMOD BYTE STOP CALLER "
				},
				"gasEstimates": {
					"creation": {
						"codeDepositCost": "52800",
						"executionCost": "22208",
						"totalCost": "75008"
					},
					"external": {
						"add()": "345",
						"global()": "353",
						"val()": "2402"
					}
				},
				"methodIdentifiers": {
					"add()": "4f2be91f",
					"global()": "a05f9906",
					"val()": "3c6bb436"
				}
			},
			"storageLayout": {
				"storage": [
					{
						"astId": 4,
						"contract": "Variable_Types.sol:functions",
						"label": "val",
						"offset": 0,
						"slot": "0",
						"type": "t_uint256"
					}
				],
				"types": {
					"t_uint256": {
						"encoding": "inplace",
						"label": "uint256",
						"numberOfBytes": "32"
					}
				}
			},
			"userdoc": {
				"kind": "user",
				"methods": {},
				"version": 1
			}
		}
	}
}