{
	"data": {
		"bytecode": {
			"linkReferences": {},
			"object": "608060405260015f553480156012575f80fd5b5060405161014d38038061014d833981810160405281019060329190606f565b805f81905550506095565b5f80fd5b5f819050919050565b6051816041565b8114605a575f80fd5b50565b5f81519050606981604a565b92915050565b5f602082840312156081576080603d565b5b5f608c84828501605d565b91505092915050565b60ac806100a15f395ff3fe6080604052348015600e575f80fd5b50600436106026575f3560e01c80634e70b1dc14602a575b5f80fd5b60306044565b604051603b9190605f565b60405180910390f35b5f5481565b5f819050919050565b6059816049565b82525050565b5f60208201905060705f8301846052565b9291505056fea2646970667358221220e2bbaa888aefa2a498375f527bdd401505646d2dc1b6dd94ed1e6c4cec63065264736f6c634300081a0033",
			"opcodes": "PUSH1 0x80 PUSH1 0x40 MSTORE PUSH1 0x1 PUSH0 SSTORE CALLVALUE DUP1 ISZERO PUSH1 0x12 JUMPI PUSH0 DUP1 REVERT JUMPDEST POP PUSH1 0x40 MLOAD PUSH2 0x14D CODESIZE SUB DUP1 PUSH2 0x14D DUP4 CODECOPY DUP2 DUP2 ADD PUSH1 0x40 MSTORE DUP2 ADD SWAP1 PUSH1 0x32 SWAP2 SWAP1 PUSH1 0x6F JUMP JUMPDEST DUP1 PUSH0 DUP2 SWAP1 SSTORE POP POP PUSH1 0x95 JUMP JUMPDEST PUSH0 DUP1 REVERT JUMPDEST PUSH0 DUP2 SWAP1 POP SWAP2 SWAP1 POP JUMP JUMPDEST PUSH1 0x51 DUP2 PUSH1 0x41 JUMP JUMPDEST DUP2 EQ PUSH1 0x5A JUMPI PUSH0 DUP1 REVERT JUMPDEST POP JUMP JUMPDEST PUSH0 DUP2 MLOAD SWAP1 POP PUSH1 0x69 DUP2 PUSH1 0x4A JUMP JUMPDEST SWAP3 SWAP2 POP POP JUMP JUMPDEST PUSH0 PUSH1 0x20 DUP3 DUP5 SUB SLT ISZERO PUSH1 0x81 JUMPI PUSH1 0x80 PUSH1 0x3D JUMP JUMPDEST JUMPDEST PUSH0 PUSH1 0x8C DUP5 DUP3 DUP6 ADD PUSH1 0x5D JUMP JUMPDEST SWAP2 POP POP SWAP3 SWAP2 POP POP JUMP JUMPDEST PUSH1 0xAC DUP1 PUSH2 0xA1 PUSH0 CODECOPY PUSH0 RETURN INVALID PUSH1 0x80 PUSH1 0x40 MSTORE CALLVALUE DUP1 ISZERO PUSH1 0xE JUMPI PUSH0 DUP1 REVERT JUMPDEST POP PUSH1 0x4 CALLDATASIZE LT PUSH1 0x26 JUMPI PUSH0 CALLDATALOAD PUSH1 0xE0 SHR DUP1 PUSH4 0x4E70B1DC EQ PUSH1 0x2A JUMPI JUMPDEST PUSH0 DUP1 REVERT JUMPDEST PUSH1 0x30 PUSH1 0x44 JUMP JUMPDEST PUSH1 0x40 MLOAD PUSH1 0x3B SWAP2 SWAP1 PUSH1 0x5F JUMP JUMPDEST PUSH1 0x40 MLOAD DUP1 SWAP2 SUB SWAP1 RETURN JUMPDEST PUSH0 SLOAD DUP2 JUMP JUMPDEST PUSH0 DUP2 SWAP1 POP SWAP2 SWAP1 POP JUMP JUMPDEST PUSH1 0x59 DUP2 PUSH1 0x49 JUMP JUMPDEST DUP3 MSTORE POP POP JUMP JUMPDEST PUSH0 PUSH1 0x20 DUP3 ADD SWAP1 POP PUSH1 0x70 PUSH0 DUP4 ADD DUP5 PUSH1 0x52 JUMP JUMPDEST SWAP3 SWAP2 POP POP JUMP INVALID LOG2 PUSH5 0x6970667358 0x22 SLT KECCAK256 0xE2 0xBB 0xAA DUP9 DUP11 0xEF LOG2 LOG4 SWAP9 CALLDATACOPY PUSH0 MSTORE PUSH28 0xDD401505646D2DC1B6DD94ED1E6C4CEC63065264736F6C634300081A STOP CALLER "
		},
		"gasEstimates": {
			"creation": {
				"codeDepositCost": "34400",
				"executionCost": "infinite",
				"totalCost": "infinite"
			},
			"external": {
				"num()": "2402"
			}
		},
		"methodIdentifiers": {
			"num()": "4e70b1dc"
		}
	},
	"abi": [
		{
			"inputs": [
				{
					"internalType": "uint256",
					"name": "_num",
					"type": "uint256"
				}
			],
			"stateMutability": "nonpayable",
			"type": "constructor"
		},
		{
			"inputs": [],
			"name": "num",
			"outputs": [
				{
					"internalType": "uint256",
					"name": "",
					"type": "uint256"
				}
			],
			"stateMutability": "view",
			"type": "function"
		}
	]
}