{
	"data": {
		"bytecode": {
			"linkReferences": {},
			"object": "608060405260045f5560056001556004600255348015601c575f80fd5b5061014b8061002a5f395ff3fe608060405234801561000f575f80fd5b506004361061004a575f3560e01c80630dbe671f1461004e5780633c6bb4361461006c5780634df7e3d01461008a578063d2178b08146100a8575b5f80fd5b6100566100c6565b60405161006391906100fc565b60405180910390f35b6100746100cc565b60405161008191906100fc565b60405180910390f35b6100926100d1565b60405161009f91906100fc565b60405180910390f35b6100b06100d7565b6040516100bd91906100fc565b60405180910390f35b60015481565b5f5481565b60025481565b5f60025460015417905090565b5f819050919050565b6100f6816100e4565b82525050565b5f60208201905061010f5f8301846100ed565b9291505056fea2646970667358221220f88fe9c2e949e9c1e6291f47b9aff3f23d49da0dc9c19e3fb6b538b14c7e38cd64736f6c634300081a0033",
			"opcodes": "PUSH1 0x80 PUSH1 0x40 MSTORE PUSH1 0x4 PUSH0 SSTORE PUSH1 0x5 PUSH1 0x1 SSTORE PUSH1 0x4 PUSH1 0x2 SSTORE CALLVALUE DUP1 ISZERO PUSH1 0x1C JUMPI PUSH0 DUP1 REVERT JUMPDEST POP PUSH2 0x14B DUP1 PUSH2 0x2A PUSH0 CODECOPY PUSH0 RETURN INVALID PUSH1 0x80 PUSH1 0x40 MSTORE CALLVALUE DUP1 ISZERO PUSH2 0xF JUMPI PUSH0 DUP1 REVERT JUMPDEST POP PUSH1 0x4 CALLDATASIZE LT PUSH2 0x4A JUMPI PUSH0 CALLDATALOAD PUSH1 0xE0 SHR DUP1 PUSH4 0xDBE671F EQ PUSH2 0x4E JUMPI DUP1 PUSH4 0x3C6BB436 EQ PUSH2 0x6C JUMPI DUP1 PUSH4 0x4DF7E3D0 EQ PUSH2 0x8A JUMPI DUP1 PUSH4 0xD2178B08 EQ PUSH2 0xA8 JUMPI JUMPDEST PUSH0 DUP1 REVERT JUMPDEST PUSH2 0x56 PUSH2 0xC6 JUMP JUMPDEST PUSH1 0x40 MLOAD PUSH2 0x63 SWAP2 SWAP1 PUSH2 0xFC JUMP JUMPDEST PUSH1 0x40 MLOAD DUP1 SWAP2 SUB SWAP1 RETURN JUMPDEST PUSH2 0x74 PUSH2 0xCC JUMP JUMPDEST PUSH1 0x40 MLOAD PUSH2 0x81 SWAP2 SWAP1 PUSH2 0xFC JUMP JUMPDEST PUSH1 0x40 MLOAD DUP1 SWAP2 SUB SWAP1 RETURN JUMPDEST PUSH2 0x92 PUSH2 0xD1 JUMP JUMPDEST PUSH1 0x40 MLOAD PUSH2 0x9F SWAP2 SWAP1 PUSH2 0xFC JUMP JUMPDEST PUSH1 0x40 MLOAD DUP1 SWAP2 SUB SWAP1 RETURN JUMPDEST PUSH2 0xB0 PUSH2 0xD7 JUMP JUMPDEST PUSH1 0x40 MLOAD PUSH2 0xBD SWAP2 SWAP1 PUSH2 0xFC JUMP JUMPDEST PUSH1 0x40 MLOAD DUP1 SWAP2 SUB SWAP1 RETURN JUMPDEST PUSH1 0x1 SLOAD DUP2 JUMP JUMPDEST PUSH0 SLOAD DUP2 JUMP JUMPDEST PUSH1 0x2 SLOAD DUP2 JUMP JUMPDEST PUSH0 PUSH1 0x2 SLOAD PUSH1 0x1 SLOAD OR SWAP1 POP SWAP1 JUMP JUMPDEST PUSH0 DUP2 SWAP1 POP SWAP2 SWAP1 POP JUMP JUMPDEST PUSH2 0xF6 DUP2 PUSH2 0xE4 JUMP JUMPDEST DUP3 MSTORE POP POP JUMP JUMPDEST PUSH0 PUSH1 0x20 DUP3 ADD SWAP1 POP PUSH2 0x10F PUSH0 DUP4 ADD DUP5 PUSH2 0xED JUMP JUMPDEST SWAP3 SWAP2 POP POP JUMP INVALID LOG2 PUSH5 0x6970667358 0x22 SLT KECCAK256 0xF8 DUP16 0xE9 0xC2 0xE9 BLOBHASH 0xE9 0xC1 0xE6 0x29 0x1F SELFBALANCE 0xB9 0xAF RETURN CALLCODE RETURNDATASIZE BLOBHASH 0xDA 0xD 0xC9 0xC1 SWAP15 EXTCODEHASH 0xB6 0xB5 CODESIZE 0xB1 0x4C PUSH31 0x38CD64736F6C634300081A0033000000000000000000000000000000000000 "
		},
		"gasEstimates": {
			"creation": {
				"codeDepositCost": "66200",
				"executionCost": "66432",
				"totalCost": "132632"
			},
			"external": {
				"a()": "2403",
				"b()": "2447",
				"get2()": "4582",
				"val()": "2424"
			}
		},
		"methodIdentifiers": {
			"a()": "0dbe671f",
			"b()": "4df7e3d0",
			"get2()": "d2178b08",
			"val()": "3c6bb436"
		}
	},
	"abi": [
		{
			"inputs": [],
			"name": "a",
			"outputs": [
				{
					"internalType": "uint256",
					"name": "",
					"type": "uint256"
				}
			],
			"stateMutability": "view",
			"type": "function"
		},
		{
			"inputs": [],
			"name": "b",
			"outputs": [
				{
					"internalType": "uint256",
					"name": "",
					"type": "uint256"
				}
			],
			"stateMutability": "view",
			"type": "function"
		},
		{
			"inputs": [],
			"name": "get2",
			"outputs": [
				{
					"internalType": "uint256",
					"name": "",
					"type": "uint256"
				}
			],
			"stateMutability": "view",
			"type": "function"
		},
		{
			"inputs": [],
			"name": "val",
			"outputs": [
				{
					"internalType": "uint256",
					"name": "",
					"type": "uint256"
				}
			],
			"stateMutability": "view",
			"type": "function"
		}
	]
}