{
	"data": {
		"bytecode": {
			"linkReferences": {},
			"object": "6080604052348015600e575f80fd5b506101118061001c5f395ff3fe608060405260043610601b575f3560e01c8063b46300ec14601f575b5f80fd5b60256027565b005b600134116067576040517f08c379a0000000000000000000000000000000000000000000000000000000008152600401605e9060bf565b60405180910390fd5b565b5f82825260208201905092915050565b7f56616c75652073686f756c642062652067726561746572207468616e203100005f82015250565b5f60ab601e836069565b915060b4826079565b602082019050919050565b5f6020820190508181035f83015260d48160a1565b905091905056fea264697066735822122020cc488438cea82399381a63776816cc32ce9f593065c970d7ee2790c0441a8f64736f6c634300081a0033",
			"opcodes": "PUSH1 0x80 PUSH1 0x40 MSTORE CALLVALUE DUP1 ISZERO PUSH1 0xE JUMPI PUSH0 DUP1 REVERT JUMPDEST POP PUSH2 0x111 DUP1 PUSH2 0x1C PUSH0 CODECOPY PUSH0 RETURN INVALID PUSH1 0x80 PUSH1 0x40 MSTORE PUSH1 0x4 CALLDATASIZE LT PUSH1 0x1B JUMPI PUSH0 CALLDATALOAD PUSH1 0xE0 SHR DUP1 PUSH4 0xB46300EC EQ PUSH1 0x1F JUMPI JUMPDEST PUSH0 DUP1 REVERT JUMPDEST PUSH1 0x25 PUSH1 0x27 JUMP JUMPDEST STOP JUMPDEST PUSH1 0x1 CALLVALUE GT PUSH1 0x67 JUMPI PUSH1 0x40 MLOAD PUSH32 0x8C379A000000000000000000000000000000000000000000000000000000000 DUP2 MSTORE PUSH1 0x4 ADD PUSH1 0x5E SWAP1 PUSH1 0xBF JUMP JUMPDEST PUSH1 0x40 MLOAD DUP1 SWAP2 SUB SWAP1 REVERT JUMPDEST JUMP JUMPDEST PUSH0 DUP3 DUP3 MSTORE PUSH1 0x20 DUP3 ADD SWAP1 POP SWAP3 SWAP2 POP POP JUMP JUMPDEST PUSH32 0x56616C75652073686F756C642062652067726561746572207468616E20310000 PUSH0 DUP3 ADD MSTORE POP JUMP JUMPDEST PUSH0 PUSH1 0xAB PUSH1 0x1E DUP4 PUSH1 0x69 JUMP JUMPDEST SWAP2 POP PUSH1 0xB4 DUP3 PUSH1 0x79 JUMP JUMPDEST PUSH1 0x20 DUP3 ADD SWAP1 POP SWAP2 SWAP1 POP JUMP JUMPDEST PUSH0 PUSH1 0x20 DUP3 ADD SWAP1 POP DUP2 DUP2 SUB PUSH0 DUP4 ADD MSTORE PUSH1 0xD4 DUP2 PUSH1 0xA1 JUMP JUMPDEST SWAP1 POP SWAP2 SWAP1 POP JUMP INVALID LOG2 PUSH5 0x6970667358 0x22 SLT KECCAK256 KECCAK256 0xCC BASEFEE DUP5 CODESIZE 0xCE 0xA8 0x23 SWAP10 CODESIZE BYTE PUSH4 0x776816CC ORIGIN 0xCE SWAP16 MSIZE ADDRESS PUSH6 0xC970D7EE2790 0xC0 PREVRANDAO BYTE DUP16 PUSH5 0x736F6C6343 STOP ADDMOD BYTE STOP CALLER "
		},
		"gasEstimates": {
			"creation": {
				"codeDepositCost": "54600",
				"executionCost": "103",
				"totalCost": "54703"
			},
			"external": {
				"send()": "403"
			}
		},
		"methodIdentifiers": {
			"send()": "b46300ec"
		}
	},
	"abi": [
		{
			"inputs": [],
			"name": "send",
			"outputs": [],
			"stateMutability": "payable",
			"type": "function"
		}
	]
}